:100000000C9462000C948A000C948A000C948A0070
:100010000C948A000C948A000C948A000C948A0038
:100020000C948A000C948A000C948A000C948A0028
:100030000C948A000C948A000C948A000C948A0018
:100040000C9487150C948A000C94F7150C94D11518
:100050000C948A000C948A000C948A000C948A00F8
:100060000C948A000C948A000000000024002700F1
:100070002A0000000000250028002B0000000000DE
:1000800023002600290004040404040404040202DA
:100090000202020203030303030301020408102007
:1000A0004080010204081020010204081020000012
:1000B0000008000201000003040700000000000027
:1000C0000000291611241FBECFEFD8E0DEBFCDBF40
:1000D00024E0A2E4B2E001C01D92A93AB207E1F720
:1000E00012E0A0E0B1E0EEE8F8E302C005900D9266
:1000F000A234B107D9F710E0C2E6D0E004C02197DE
:10010000FE010E94331CC136D107C9F70E9469164F
:100110000C94451C0C940000CF92DF92EF929C014E
:10012000255E3F4FFB01C080D180E280FC01C1927F
:10013000D192E192CF01E217F307A1F7EF90DF90A0
:10014000CF9008950F931F93CF93DF93EC018B0112
:10015000E881F9810480F581E02D09951B830A83EC
:1001600089E090E09F878E87E881F9810684F78592
:10017000E02DCE010995009701F19C0150E040E08F
:1001800060E472E48FE090E00E94DF1B80919F04A6
:100190009091A004A091A104B091A20482179307AA
:1001A000A407B50710F4DA01C90180939F04909366
:1001B000A004A093A104B093A204CE01DF91CF913B
:1001C0001F910F910895833081F028F4813099F0C8
:1001D0008230A9F008958730A9F08830C9F08430C2
:1001E000B1F4809180008F7D03C0809180008F7773
:1001F00080938000089584B58F7784BD089584B579
:100200008F7DFBCF8091B0008F778093B0000895F1
:100210008091B0008F7DF9CFCF93DF93282F30E00E
:10022000F901E255FF4F8491F901E656FF4FD49151
:10023000F901EA57FF4FC491CC23A1F081110E942C
:10024000E300EC2FF0E0EE0FFF1FE458FF4FA59105
:10025000B491EC91ED2381E090E009F480E0DF912E
:10026000CF91089580E090E0FACF1F93CF93DF9372
:10027000282F30E0F901E255FF4F8491F901E6564D
:10028000FF4FD491F901EA57FF4FC491CC23A9F055
:10029000162F81110E94E300EC2FF0E0EE0FFF1FFC
:1002A000EE58FF4FA591B4918FB7F894EC911111CE
:1002B00008C0D095DE23DC938FBFDF91CF911F91D3
:1002C0000895DE2BF8CFCF93DF9390E0FC01E65644
:1002D000FF4F24918A579F4FFC0184918823D1F0CE
:1002E00090E0880F991FFC01E859FF4FA591B49148
:1002F000FC01EE58FF4FC591D49161110EC09FB71C
:10030000F8948C91E22FE0958E238C932881E22340
:10031000E8839FBFDF91CF9108958FB7F894EC9158
:10032000E22BEC938FBFF6CF3FB7F8948091DB03BD
:100330009091DC03A091DD03B091DE0326B5A89B6C
:1003400005C02F3F19F00196A11DB11D3FBFBA2F67
:10035000A92F982F8827BC01CD01620F711D811D27
:10036000911D42E0660F771F881F991F4A95D1F7AC
:100370000895AF92BF92DF92EF92FF920F931F9377
:10038000CF93DF93D0909C0480919F049091A00420
:10039000A091A104B091A204892B8A2B8B2BD9F0B8
:1003A0000E9494010091FB031091FC032091FD0336
:1003B0003091FE03601B710B820B930B00919F0425
:1003C0001091A0042091A1043091A204601771073C
:1003D00082079307C8F20E9494016093FB03709315
:1003E000FC038093FD039093FE03E091A704F0913A
:1003F000A804309759F04091A3045091A40460914F
:10040000A5047091A6048D2D0995D82EC091F903ED
:10041000D091FA0389EEE82E83E0F82E8701209729
:1004200049F183E0093F180729F18D858823F1F010
:10043000E881F981A284B3840680F781E02DCE01A2
:100440000995BC01CE01F5010995F80191838083DE
:1004500080919D0490919E048436910508F41C8639
:100460000C80DD81C02D0E5F1F4FD9CFF8011182A6
:100470001082EECFC091F903D091FA0308E010E0AA
:100480002097A9F08D85882361F04E855F856A816C
:100490007B81E881F9810280F381E02D2D2DCE0151
:1004A00009950C80DD81C02D0150110949F7C091DB
:1004B000F903D091FA032097C9F0F9EFEF16F3E0B2
:1004C000FF06A1F08D85882351F0F70160817181CD
:1004D000E881F9810484F585E02DCE0109950C8031
:1004E000DD81C02DF2E0EF0EF11CE5CF8091E70336
:1004F0009091E8039C012F5F3F4F3093E8032093D6
:10050000E70349970CF44AC08FB7F8942091DF03B2
:100510003091E0034091E1035091E2038FBF80915D
:10052000E3039091E403A091E503B091E603281B57
:10053000390B4A0B5B0B21F421E030E040E050E046
:10054000E091E703F091E80388EE93E0E89FB001C3
:10055000E99F700DF89F700D1124072E000C880B79
:10056000990B0E94BD1B30939E0420939D04109212
:10057000E8031092E7032FB7F8948091DF0390917E
:10058000E003A091E103B091E2032FBF8093E30366
:100590009093E403A093E503B093E603DF91CF913A
:1005A0001F910F91FF90EF90DF90BF90AF90089553
:1005B0008F929F92AF92BF92CF92DF92EF92FF9273
:1005C0004B015C010E9494016B017C010E9494012B
:1005D0006C197D098E099F09683E7340810591055C
:1005E000A8F321E0821A9108A108B10888EEC80E8C
:1005F00083E0D81EE11CF11C81149104A104B10414
:1006000029F7FF90EF90DF90CF90BF90AF909F9031
:100610008F900895AF92BF92CF92DF92EF92FF92A8
:100620000F931F93CF93DF936C017B018B01040F1A
:10063000151FEB015E01AE18BF08C017D10759F0B6
:100640006991D601ED91FC910190F081E02DC601F8
:100650000995892B79F7C501DF91CF911F910F91F2
:10066000FF90EF90DF90CF90BF90AF900895FC0186
:10067000538D448D252F30E0842F90E0821B930B07
:10068000541710F0CF96089501970895FC01918DAD
:10069000828D981761F0A28DAE0FBF2FB11D5D96B0
:1006A0008C91928D9F5F9F73928F90E008958FEF52
:1006B0009FEF0895FC01918D828D981731F0828D06
:1006C000E80FF11D858D90E008958FEF9FEF08955D
:1006D000FC01918D228D892F90E0805C9F4F821BC1
:1006E00091098F73992708958FEF93E00E94680313
:1006F00021E0892B09F420E0822F089580E090E02A
:10070000892B29F00E94740381110C940000089534
:10071000FC01A48DA80FB92FB11DA35ABF4F2C9176
:10072000848D90E001968F739927848FA689B7896D
:100730002C93A089B1898C91837080648C93938D64
:10074000848D981306C00288F389E02D80818F7D07
:1007500080830895EF92FF920F931F93CF93DF93BF
:10076000EC0181E0888F9B8D8C8D98131AC0E889ED
:10077000F989808185FF15C09FB7F894EE89FF89BC
:100780006083E889F98980818370806480839FBF5A
:1007900081E090E0DF91CF911F910F91FF90EF905A
:1007A0000895F62E0B8D10E00F5F1F4F0F7311276A
:1007B000E02E8C8D8E110CC00FB607FCFACFE889A5
:1007C000F989808185FFF5CFCE010E948803F1CFA2
:1007D000EB8DEC0FFD2FF11DE35AFF4FF0829FB719
:1007E000F8940B8FEA89FB8980818062CFCFCF9309
:1007F000DF93EC01888D8823B9F0AA89BB89E88949
:10080000F9898C9185FD03C0808186FD0DC00FB6EE
:1008100007FCF7CF8C9185FFF2CF808185FFEDCF6C
:10082000CE010E948803E9CFDF91CF910895AF9266
:10083000BF92CF92DF92EF92FF920F931F93CF93CD
:10084000DF9300D01F92CDB7DEB75A0119821A820A
:100850001B82882361F18B01E1E0F0E0E82EF12CAE
:10086000D8012D918D012223F1F06F01B1E0CB1A57
:10087000D108D501AC0DBD1D4C914423A1F030E051
:100880002F5F3F4FD7010E94FE1BA42FB0E01196AF
:100890009B01AC010E94141CA1E0B0E0AC0FBD1F95
:1008A000AC0DBD1D8C933196E430F105C9F669811C
:1008B0007A818B810F900F900F90DF91CF911F91D4
:1008C0000F91FF90EF90DF90CF90BF90AF90089581
:1008D000FC0184E091E091838083138212828FEF88
:1008E00086838783808781878287838781E0848767
:1008F00085871786168680E797E1918B808B83E04A
:1009000090E0938B828B158A148A158214828091D1
:10091000F9039091FA03892B21F4F093FA03E09301
:10092000F903A0915602B0915702109721F0159645
:10093000FC93EE931497F0935702E09356020895B8
:1009400081E090E008950F931F93CF93DF93209160
:1009500055022F5F322F37703093550220FF2BC086
:1009600020E831FD2064347009F02062205FFC0132
:10097000EC01239600E011E06785662329F070E022
:10098000C8010E94A91B6F5F6187822F869F080E96
:1009900080E0811D1124811110C01682662311F0A0
:1009A000615061873196EC17FD0731F7DF91CF91E8
:1009B0001F910F91089520E0D4CF81508683EECF10
:1009C000CF93DF93EC010E94940179836883DF91D8
:1009D000CF910895CF93DF93EC010E949401288179
:1009E0003981621B730B6A307105B8F3DF91CF91C7
:1009F00008954F925F927F928F929F92AF92BF9293
:100A0000CF92DF92EF92FF920F931F93CF93DF93DA
:100A1000EB0146962C010E94EA04F8948A819B819E
:100A2000181619060CF0CDC1E881F9816BB1862E3C
:100A3000689482F83BB13B7F3BB9DA848F81ED2C1F
:100A4000E81A8E2DEF824C85042E000C550BAA81DE
:100A5000BB817889FF84E9887F5FF394E3949E816A
:100A60009884B984AB841181C12C2C2D0C2D6C2D54
:100A70006181112788946111680F08F46FEF8195E7
:100A8000889470FD160F1795889471FD160F1795B1
:100A9000889472FD160F1795889473FD160F17959D
:100AA000889474FD160F1795889475FD160F179589
:100AB000889476FD160F1795889477FD160F179575
:100AC0008894262F7111212F8D0D122F002C8BB899
:100AD00000C017FF3BB960812227889400C000C086
:100AE000002C3BB96111690F00C0002C8BB800C00D
:100AF00016FF3BB908F46FEF9195889400C000C0D1
:100B0000002C3BB9F0FC260F00C0002C8BB800C0B5
:100B100015FF3BB927958894F1FC260F00C000C053
:100B2000002C3BB92795889400C0002C8BB800C0DE
:100B300014FF3BB9F2FC260F2795889400C000C033
:100B4000002C3BB9F3FC260F00C0002C8BB800C072
:100B500013FF3BB927958894F4FC260F00C000C012
:100B6000002C3BB92795889400C0002C8BB800C09E
:100B700012FF3BB9F5FC260F2795889400C000C0F2
:100B8000002C3BB9F6FC260F00C0002C8BB800C02F
:100B900011FF3BB927958894F7FC260F00C000C0D1
:100BA000002C3BB92795889400C0002C8BB800C05E
:100BB00010FF3BB9162FF110122F9B0D00C000C083
:100BC000002C3BB900C000C0002C8BB800C017FF40
:100BD0003BB962812227889400C000C0002C3BB939
:100BE0006111690D00C0002C8BB800C016FF3BB925
:100BF00008F46FEFE40FF51F00C000C0002C3BB9F4
:100C0000E0FC260F00C0002C8BB800C015FF3BB9DC
:100C100027958894E1FC260F00C000C0002C3BB94A
:100C20002795889400C0002C8BB800C014FF3BB9F6
:100C3000E2FC260F2795889400C000C0002C3BB929
:100C4000E3FC260F00C0002C8BB800C013FF3BB99B
:100C500027958894E4FC260F00C000C0002C3BB907
:100C60002795889400C0002C8BB800C012FF3BB9B8
:100C7000E5FC260F2795889400C000C0002C3BB9E6
:100C8000E6FC260F00C0002C8BB800C011FF3BB95A
:100C900027958894E7FC260F00C000C0002C3BB9C4
:100CA0002795889400C0002C8BB800C010FF3BB97A
:100CB000162FE110122F919400C000C0002C3BB9F8
:100CC0009A0C00C000C08BB800C017FF3BB961810F
:100CD0002227889400C000C0002C3BB96111680F26
:100CE00000C0002C8BB800C016FF3BB908F46FEFB2
:100CF0008195889400C000C0002C3BB970FD260F80
:100D000000C0002C8BB800C015FF3BB92795889414
:100D100071FD260F00C000C0002C3BB927958894B8
:100D200000C0002C8BB800C014FF3BB972FD260F29
:100D30002795889400C000C0002C3BB973FD260F96
:100D400000C0002C8BB800C013FF3BB927958894D6
:100D500074FD260F00C000C0002C3BB92795889475
:100D600000C0002C8BB800C012FF3BB975FD260FE8
:100D70002795889400C000C0002C3BB976FD260F53
:100D800000C0002C8BB800C011FF3BB92795889498
:100D900077FD260F00C000C0002C3BB92795889432
:100DA00000C0002C8BB800C010FF3BB9162F71118A
:100DB000122F8D0D00C000C0002C3BB9119709F017
:100DC00086CEEA81FB812EE130E0DF010E940D1C1E
:100DD00030E020E0A901AAE9EA9F0E0E411DFA9F2A
:100DE000400D511D11244F0F511D7B018C01E40E4C
:100DF000F51E011D111DB801A701493E03E0500772
:100E00006105710508F435C0485E534061097109F8
:100E100082E076956795579547958A95D1F7C901F0
:100E200027E0429F040E811D529F800D911D1124C9
:100E3000850F911D2091540230E0420F531F840F03
:100E4000951F4091DF035091E0036091E1037091A1
:100E5000E203292F3327420F531F611D711D409359
:100E6000DF035093E0036093E1037093E203809308
:100E700054027894C201DF91CF911F910F91FF909E
:100E8000EF90DF90CF90BF90AF909F908F907F902A
:100E90005F904F900C94E00480E991E00895529A9D
:100EA00008954F925F927F928F929F92AF92BF92DE
:100EB000CF92DF92EF92FF920F931F93CF93DF9326
:100EC000EB0146962C010E94EA04F8948A819B81EA
:100ED000181619060CF0CDC1E881F9816BB1862E88
:100EE000689483F83BB1377F3BB9DA848F81ED2C6E
:100EF000E81A8E2DEF824C85042E000C550BAA812A
:100F0000BB817889FF84E9887F5FF394E3949E81B5
:100F10009884B984AB841181C12C2C2D0C2D6C2D9F
:100F20006181112788946111680F08F46FEF819532
:100F3000889470FD160F1795889471FD160F1795FC
:100F4000889472FD160F1795889473FD160F1795E8
:100F5000889474FD160F1795889475FD160F1795D4
:100F6000889476FD160F1795889477FD160F1795C0
:100F70008894262F7111212F8D0D122F002C8BB8E4
:100F800000C017FF3BB960812227889400C000C0D1
:100F9000002C3BB96111690F00C0002C8BB800C058
:100FA00016FF3BB908F46FEF9195889400C000C01C
:100FB000002C3BB9F0FC260F00C0002C8BB800C001
:100FC00015FF3BB927958894F1FC260F00C000C09F
:100FD000002C3BB92795889400C0002C8BB800C02A
:100FE00014FF3BB9F2FC260F2795889400C000C07F
:100FF000002C3BB9F3FC260F00C0002C8BB800C0BE
:1010000013FF3BB927958894F4FC260F00C000C05D
:10101000002C3BB92795889400C0002C8BB800C0E9
:1010200012FF3BB9F5FC260F2795889400C000C03D
:10103000002C3BB9F6FC260F00C0002C8BB800C07A
:1010400011FF3BB927958894F7FC260F00C000C01C
:10105000002C3BB92795889400C0002C8BB800C0A9
:1010600010FF3BB9162FF110122F9B0D00C000C0CE
:10107000002C3BB900C000C0002C8BB800C017FF8B
:101080003BB962812227889400C000C0002C3BB984
:101090006111690D00C0002C8BB800C016FF3BB970
:1010A00008F46FEFE40FF51F00C000C0002C3BB93F
:1010B000E0FC260F00C0002C8BB800C015FF3BB928
:1010C00027958894E1FC260F00C000C0002C3BB996
:1010D0002795889400C0002C8BB800C014FF3BB942
:1010E000E2FC260F2795889400C000C0002C3BB975
:1010F000E3FC260F00C0002C8BB800C013FF3BB9E7
:1011000027958894E4FC260F00C000C0002C3BB952
:101110002795889400C0002C8BB800C012FF3BB903
:10112000E5FC260F2795889400C000C0002C3BB931
:10113000E6FC260F00C0002C8BB800C011FF3BB9A5
:1011400027958894E7FC260F00C000C0002C3BB90F
:101150002795889400C0002C8BB800C010FF3BB9C5
:10116000162FE110122F919400C000C0002C3BB943
:101170009A0C00C000C08BB800C017FF3BB961815A
:101180002227889400C000C0002C3BB96111680F71
:1011900000C0002C8BB800C016FF3BB908F46FEFFD
:1011A0008195889400C000C0002C3BB970FD260FCB
:1011B00000C0002C8BB800C015FF3BB92795889460
:1011C00071FD260F00C000C0002C3BB92795889404
:1011D00000C0002C8BB800C014FF3BB972FD260F75
:1011E0002795889400C000C0002C3BB973FD260FE2
:1011F00000C0002C8BB800C013FF3BB92795889422
:1012000074FD260F00C000C0002C3BB927958894C0
:1012100000C0002C8BB800C012FF3BB975FD260F33
:101220002795889400C000C0002C3BB976FD260F9E
:1012300000C0002C8BB800C011FF3BB927958894E3
:1012400077FD260F00C000C0002C3BB9279588947D
:1012500000C0002C8BB800C010FF3BB9162F7111D5
:10126000122F8D0D00C000C0002C3BB9119709F062
:1012700086CEEA81FB812EE130E0DF010E940D1C69
:1012800030E020E0A901AAE9EA9F0E0E411DFA9F75
:10129000400D511D11244F0F511D7B018C01E40E97
:1012A000F51E011D111DB801A701493E03E05007BD
:1012B0006105710508F435C0485E53406109710944
:1012C00082E076956795579547958A95D1F7C9013C
:1012D00027E0429F040E811D529F800D911D112415
:1012E000850F911D2091540230E0420F531F840F4F
:1012F000951F4091DF035091E0036091E1037091ED
:10130000E203292F3327420F531F611D711D4093A4
:10131000DF035093E0036093E1037093E203809353
:1013200054027894C201DF91CF911F910F91FF90E9
:10133000EF90DF90CF90BF90AF909F908F907F9075
:101340005F904F900C94E004539A08954F925F92EF
:101350007F928F929F92AF92BF92CF92DF92EF9245
:10136000FF920F931F93CF93DF93EB0146962C01CF
:101370000E94EA04F8948A819B81181619060CF0E1
:10138000CDC1E881F9816BB1862E689484F83BB1B8
:101390003F7E3BB9DA848F81ED2CE81A8E2DEF82E7
:1013A0004C85042E000C550BAA81BB817889FF84E3
:1013B000E9887F5FF394E3949E819884B984AB8439
:1013C0001181C12C2C2D0C2D6C2D6181112788943D
:1013D0006111680F08F46FEF8195889470FD160F06
:1013E0001795889471FD160F1795889472FD160F46
:1013F0001795889473FD160F1795889474FD160F32
:101400001795889475FD160F1795889476FD160F1D
:101410001795889477FD160F17958894262F7111CC
:10142000212F8D0D122F002C8BB800C017FF3BB958
:1014300060812227889400C000C0002C3BB9611154
:10144000690F00C0002C8BB800C016FF3BB908F430
:101450006FEF9195889400C000C0002C3BB9F0FC60
:10146000260F00C0002C8BB800C015FF3BB9279594
:101470008894F1FC260F00C000C0002C3BB92795D2
:10148000889400C0002C8BB800C014FF3BB9F2FC5C
:10149000260F2795889400C000C0002C3BB9F3FCB0
:1014A000260F00C0002C8BB800C013FF3BB9279556
:1014B0008894F4FC260F00C000C0002C3BB927958F
:1014C000889400C0002C8BB800C012FF3BB9F5FC1B
:1014D000260F2795889400C000C0002C3BB9F6FC6D
:1014E000260F00C0002C8BB800C011FF3BB9279518
:1014F0008894F7FC260F00C000C0002C3BB927954C
:10150000889400C0002C8BB800C010FF3BB9162F88
:10151000F110122F9B0D00C000C0002C3BB900C081
:1015200000C0002C8BB800C017FF3BB96281222796
:10153000889400C000C0002C3BB96111690D00C047
:10154000002C8BB800C016FF3BB908F46FEFE40F16
:10155000F51F00C000C0002C3BB9E0FC260F00C006
:10156000002C8BB800C015FF3BB927958894E1FC8F
:10157000260F00C000C0002C3BB92795889400C0FE
:10158000002C8BB800C014FF3BB9E2FC260F279556
:10159000889400C000C0002C3BB9E3FC260F00C0BB
:1015A000002C8BB800C013FF3BB927958894E4FC4E
:1015B000260F00C000C0002C3BB92795889400C0BE
:1015C000002C8BB800C012FF3BB9E5FC260F279515
:1015D000889400C000C0002C3BB9E6FC260F00C078
:1015E000002C8BB800C011FF3BB927958894E7FC0D
:1015F000260F00C000C0002C3BB92795889400C07E
:10160000002C8BB800C010FF3BB9162FE110122F31
:10161000919400C000C0002C3BB99A0C00C000C0DF
:101620008BB800C017FF3BB961812227889400C0A6
:1016300000C0002C3BB96111680F00C0002C8BB8B2
:1016400000C016FF3BB908F46FEF8195889400C085
:1016500000C0002C3BB970FD260F00C0002C8BB8D9
:1016600000C015FF3BB92795889471FD260F00C077
:1016700000C0002C3BB92795889400C0002C8BB883
:1016800000C014FF3BB972FD260F2795889400C057
:1016900000C0002C3BB973FD260F00C0002C8BB896
:1016A00000C013FF3BB92795889474FD260F00C036
:1016B00000C0002C3BB92795889400C0002C8BB843
:1016C00000C012FF3BB975FD260F2795889400C016
:1016D00000C0002C3BB976FD260F00C0002C8BB853
:1016E00000C011FF3BB92795889477FD260F00C0F5
:1016F00000C0002C3BB92795889400C0002C8BB803
:1017000000C010FF3BB9162F7111122F8D0D00C0B4
:1017100000C0002C3BB9119709F086CEEA81FB810D
:101720002EE130E0DF010E940D1C30E020E0A90135
:10173000AAE9EA9F0E0E411DFA9F400D511D11248A
:101740004F0F511D7B018C01E40EF51E011D111D73
:10175000B801A701493E03E050076105710508F48F
:1017600035C0485E53406109710982E076956795FE
:10177000579547958A95D1F7C90127E0429F040EF6
:10178000811D529F800D911D1124850F911D209167
:10179000540230E0420F531F840F951F4091DF0326
:1017A0005091E0036091E1037091E203292F332708
:1017B000420F531F611D711D4093DF035093E003DF
:1017C0006093E1037093E203809354027894C20122
:1017D000DF91CF911F910F91FF90EF90DF90CF900D
:1017E000BF90AF909F908F907F905F904F900C94A0
:1017F000E004549A08954F925F927F928F929F9245
:10180000AF92BF92CF92DF92EF92FF920F931F930E
:10181000CF93DF93EB0146962C010E94EA04F894E3
:101820008A819B81181619060CF0CDC1E881F981D7
:101830006BB1862E689485F83BB13F7D3BB9DA8465
:101840008F81ED2CE81A8E2DEF824C85042E000C32
:10185000550BAA81BB817889FF84E9887F5FF39467
:10186000E3949E819884B984AB841181C12C2C2D82
:101870000C2D6C2D6181112788946111680F08F47B
:101880006FEF8195889470FD160F1795889471FD00
:10189000160F1795889472FD160F1795889473FD8F
:1018A000160F1795889474FD160F1795889475FD7B
:1018B000160F1795889476FD160F1795889477FD67
:1018C000160F17958894262F7111212F8D0D122F29
:1018D000002C8BB800C017FF3BB960812227889489
:1018E00000C000C0002C3BB96111690F00C0002C82
:1018F0008BB800C016FF3BB908F46FEF9195889440
:1019000000C000C0002C3BB9F0FC260F00C0002C2A
:101910008BB800C015FF3BB927958894F1FC260FC2
:1019200000C000C0002C3BB92795889400C0002C53
:101930008BB800C014FF3BB9F2FC260F27958894A2
:1019400000C000C0002C3BB9F3FC260F00C0002CE7
:101950008BB800C013FF3BB927958894F4FC260F81
:1019600000C000C0002C3BB92795889400C0002C13
:101970008BB800C012FF3BB9F5FC260F2795889461
:1019800000C000C0002C3BB9F6FC260F00C0002CA4
:101990008BB800C011FF3BB927958894F7FC260F40
:1019A00000C000C0002C3BB92795889400C0002CD3
:1019B0008BB800C010FF3BB9162FF110122F9B0DF2
:1019C00000C000C0002C3BB900C000C0002C8BB888
:1019D00000C017FF3BB962812227889400C000C075
:1019E000002C3BB96111690D00C0002C8BB800C000
:1019F00016FF3BB908F46FEFE40FF51F00C000C0FD
:101A0000002C3BB9E0FC260F00C0002C8BB800C0B6
:101A100015FF3BB927958894E1FC260F00C000C054
:101A2000002C3BB92795889400C0002C8BB800C0CF
:101A300014FF3BB9E2FC260F2795889400C000C034
:101A4000002C3BB9E3FC260F00C0002C8BB800C073
:101A500013FF3BB927958894E4FC260F00C000C013
:101A6000002C3BB92795889400C0002C8BB800C08F
:101A700012FF3BB9E5FC260F2795889400C000C0F3
:101A8000002C3BB9E6FC260F00C0002C8BB800C030
:101A900011FF3BB927958894E7FC260F00C000C0D2
:101AA000002C3BB92795889400C0002C8BB800C04F
:101AB00010FF3BB9162FE110122F919400C000C007
:101AC000002C3BB99A0C00C000C08BB800C017FFB7
:101AD0003BB961812227889400C000C0002C3BB92B
:101AE0006111680F00C0002C8BB800C016FF3BB915
:101AF00008F46FEF8195889400C000C0002C3BB9BA
:101B000070FD260F00C0002C8BB800C015FF3BB93C
:101B10002795889471FD260F00C000C0002C3BB9AA
:101B20002795889400C0002C8BB800C014FF3BB9E7
:101B300072FD260F2795889400C000C0002C3BB989
:101B400073FD260F00C0002C8BB800C013FF3BB9FB
:101B50002795889474FD260F00C000C0002C3BB967
:101B60002795889400C0002C8BB800C012FF3BB9A9
:101B700075FD260F2795889400C000C0002C3BB946
:101B800076FD260F00C0002C8BB800C011FF3BB9BA
:101B90002795889477FD260F00C000C0002C3BB924
:101BA0002795889400C0002C8BB800C010FF3BB96B
:101BB000162F7111122F8D0D00C000C0002C3BB9E3
:101BC000119709F086CEEA81FB812EE130E0DF013A
:101BD0000E940D1C30E020E0A901AAE9EA9F0E0E48
:101BE000411DFA9F400D511D11244F0F511D7B01C6
:101BF0008C01E40EF51E011D111DB801A701493E1F
:101C000003E050076105710508F435C0485E534094
:101C10006109710982E076956795579547958A9590
:101C2000D1F7C90127E0429F040E811D529F800D0C
:101C3000911D1124850F911D2091540230E0420F17
:101C4000531F840F951F4091DF035091E003609173
:101C5000E1037091E203292F3327420F531F611DC7
:101C6000711D4093DF035093E0036093E103709391
:101C7000E203809354027894C201DF91CF911F91C7
:101C80000F91FF90EF90DF90CF90BF90AF909F901B
:101C90008F907F905F904F900C94E004559A089538
:101CA0004F925F927F928F929F92AF92BF92CF920C
:101CB000DF92EF92FF920F931F93CF93DF93EB018D
:101CC00046962C010E94EA04F8948A819B8118169A
:101CD00019060CF0CDC1E881F9816BB1862E6894AC
:101CE00086F83BB13F7B3BB9DA848F81ED2CE81A53
:101CF0008E2DEF824C85042E000C550BAA81BB81E2
:101D00007889FF84E9887F5FF394E3949E819884C7
:101D1000B984AB841181C12C2C2D0C2D6C2D6181CB
:101D2000112788946111680F08F46FEF81958894EA
:101D300070FD160F1795889471FD160F17958894EE
:101D400072FD160F1795889473FD160F17958894DA
:101D500074FD160F1795889475FD160F17958894C6
:101D600076FD160F1795889477FD160F17958894B2
:101D7000262F7111212F8D0D122F002C8BB800C032
:101D800017FF3BB960812227889400C000C0002C57
:101D90003BB96111690F00C0002C8BB800C016FF61
:101DA0003BB908F46FEF9195889400C000C0002CF7
:101DB0003BB9F0FC260F00C0002C8BB800C015FF0B
:101DC0003BB927958894F1FC260F00C000C0002C79
:101DD0003BB92795889400C0002C8BB800C014FF35
:101DE0003BB9F2FC260F2795889400C000C0002C58
:101DF0003BB9F3FC260F00C0002C8BB800C013FFCA
:101E00003BB927958894F4FC260F00C000C0002C35
:101E10003BB92795889400C0002C8BB800C012FFF6
:101E20003BB9F5FC260F2795889400C000C0002C14
:101E30003BB9F6FC260F00C0002C8BB800C011FF88
:101E40003BB927958894F7FC260F00C000C0002CF2
:101E50003BB92795889400C0002C8BB800C010FFB8
:101E60003BB9162FF110122F9B0D00C000C0002CA3
:101E70003BB900C000C0002C8BB800C017FF3BB9B5
:101E800062812227889400C000C0002C3BB96111F8
:101E9000690D00C0002C8BB800C016FF3BB908F4D8
:101EA0006FEFE40FF51F00C000C0002C3BB9E0FC51
:101EB000260F00C0002C8BB800C015FF3BB927953A
:101EC0008894E1FC260F00C000C0002C3BB9279588
:101ED000889400C0002C8BB800C014FF3BB9E2FC12
:101EE000260F2795889400C000C0002C3BB9E3FC66
:101EF000260F00C0002C8BB800C013FF3BB92795FC
:101F00008894E4FC260F00C000C0002C3BB9279544
:101F1000889400C0002C8BB800C012FF3BB9E5FCD0
:101F2000260F2795889400C000C0002C3BB9E6FC22
:101F3000260F00C0002C8BB800C011FF3BB92795BD
:101F40008894E7FC260F00C000C0002C3BB9279501
:101F5000889400C0002C8BB800C010FF3BB9162F2E
:101F6000E110122F919400C000C0002C3BB99A0CD4
:101F700000C000C08BB800C017FF3BB961812227A9
:101F8000889400C000C0002C3BB96111680F00C0EC
:101F9000002C8BB800C016FF3BB908F46FEF819599
:101FA000889400C000C0002C3BB970FD260F00C013
:101FB000002C8BB800C015FF3BB92795889471FDA4
:101FC000260F00C000C0002C3BB92795889400C0A4
:101FD000002C8BB800C014FF3BB972FD260F27956B
:101FE000889400C000C0002C3BB973FD260F00C0D0
:101FF000002C8BB800C013FF3BB92795889474FD63
:10200000260F00C000C0002C3BB92795889400C063
:10201000002C8BB800C012FF3BB975FD260F279529
:10202000889400C000C0002C3BB976FD260F00C08C
:10203000002C8BB800C011FF3BB92795889477FD21
:10204000260F00C000C0002C3BB92795889400C023
:10205000002C8BB800C010FF3BB9162F7111122F46
:102060008D0D00C000C0002C3BB9119709F086CE41
:10207000EA81FB812EE130E0DF010E940D1C30E09F
:1020800020E0A901AAE9EA9F0E0E411DFA9F400D2A
:10209000511D11244F0F511D7B018C01E40EF51EC3
:1020A000011D111DB801A701493E03E0500761055C
:1020B000710508F435C0485E53406109710982E03A
:1020C00076956795579547958A95D1F7C90127E089
:1020D000429F040E811D529F800D911D1124850F7A
:1020E000911D2091540230E0420F531F840F951F21
:1020F0004091DF035091E0036091E1037091E203AE
:10210000292F3327420F531F611D711D4093DF0399
:102110005093E0036093E1037093E20380935402D1
:102120007894C201DF91CF911F910F91FF90EF90B2
:10213000DF90CF90BF90AF909F908F907F905F90F7
:102140004F900C94E004569A08954F925F927F92BC
:102150008F929F92AF92BF92CF92DF92EF92FF92B7
:102160000F931F93CF93DF93EB0146962C010E94B0
:10217000EA04F8948A819B81181619060CF0CDC1E7
:10218000E881F9816BB1862E689487F83BB13F777F
:102190003BB9DA848F81ED2CE81A8E2DEF824C85C5
:1021A000042E000C550BAA81BB817889FF84E98835
:1021B0007F5FF394E3949E819884B984AB8411810A
:1021C000C12C2C2D0C2D6C2D61811127889461114F
:1021D000680F08F46FEF8195889470FD160F1795BE
:1021E000889471FD160F1795889472FD160F179538
:1021F000889473FD160F1795889474FD160F179524
:10220000889475FD160F1795889476FD160F17950F
:10221000889477FD160F17958894262F7111212F1A
:102220008D0D122F002C8BB800C017FF3BB96081B9
:102230002227889400C000C0002C3BB96111690FAF
:1022400000C0002C8BB800C016FF3BB908F46FEF3C
:102250009195889400C000C0002C3BB9F0FC260F7B
:1022600000C0002C8BB800C015FF3BB9279588949F
:10227000F1FC260F00C000C0002C3BB927958894C4
:1022800000C0002C8BB800C014FF3BB9F2FC260F35
:102290002795889400C000C0002C3BB9F3FC260FA2
:1022A00000C0002C8BB800C013FF3BB92795889461
:1022B000F4FC260F00C000C0002C3BB92795889481
:1022C00000C0002C8BB800C012FF3BB9F5FC260FF4
:1022D0002795889400C000C0002C3BB9F6FC260F5F
:1022E00000C0002C8BB800C011FF3BB92795889423
:1022F000F7FC260F00C000C0002C3BB9279588943E
:1023000000C0002C8BB800C010FF3BB9162FF11095
:10231000122F9B0D00C000C0002C3BB900C000C0B4
:10232000002C8BB800C017FF3BB96281222788942C
:1023300000C000C0002C3BB96111690D00C0002C29
:102340008BB800C016FF3BB908F46FEFE40FF51F20
:1023500000C000C0002C3BB9E0FC260F00C0002CE0
:102360008BB800C015FF3BB927958894E1FC260F78
:1023700000C000C0002C3BB92795889400C0002CF9
:102380008BB800C014FF3BB9E2FC260F2795889458
:1023900000C000C0002C3BB9E3FC260F00C0002C9D
:1023A0008BB800C013FF3BB927958894E4FC260F37
:1023B00000C000C0002C3BB92795889400C0002CB9
:1023C0008BB800C012FF3BB9E5FC260F2795889417
:1023D00000C000C0002C3BB9E6FC260F00C0002C5A
:1023E0008BB800C011FF3BB927958894E7FC260FF6
:1023F00000C000C0002C3BB92795889400C0002C79
:102400008BB800C010FF3BB9162FE110122F91942A
:1024100000C000C0002C3BB99A0C00C000C08BB8B3
:1024200000C017FF3BB961812227889400C000C01B
:10243000002C3BB96111680F00C0002C8BB800C0A4
:1024400016FF3BB908F46FEF8195889400C000C077
:10245000002C3BB970FD260F00C0002C8BB800C0CB
:1024600015FF3BB92795889471FD260F00C000C069
:10247000002C3BB92795889400C0002C8BB800C075
:1024800014FF3BB972FD260F2795889400C000C049
:10249000002C3BB973FD260F00C0002C8BB800C088
:1024A00013FF3BB92795889474FD260F00C000C028
:1024B000002C3BB92795889400C0002C8BB800C035
:1024C00012FF3BB975FD260F2795889400C000C008
:1024D000002C3BB976FD260F00C0002C8BB800C045
:1024E00011FF3BB92795889477FD260F00C000C0E7
:1024F000002C3BB92795889400C0002C8BB800C0F5
:1025000010FF3BB9162F7111122F8D0D00C000C0A6
:10251000002C3BB9119709F086CEEA81FB812EE1B0
:1025200030E0DF010E940D1C30E020E0A901AAE9A3
:10253000EA9F0E0E411DFA9F400D511D11244F0FB1
:10254000511D7B018C01E40EF51E011D111DB8010A
:10255000A701493E03E050076105710508F435C045
:10256000485E53406109710982E0769567955795F9
:1025700047958A95D1F7C90127E0429F040E811D36
:10258000529F800D911D1124850F911D20915402A1
:1025900030E0420F531F840F951F4091DF0350918D
:1025A000E0036091E1037091E203292F3327420F8A
:1025B000531F611D711D4093DF035093E00360932F
:1025C000E1037093E203809354027894C201DF9197
:1025D000CF911F910F91FF90EF90DF90CF90BF9020
:1025E000AF909F908F907F905F904F900C94E004FD
:1025F000579A08956F927F928F92CF92DF92EF92C7
:10260000FF920F931F93CF93DF93CDB7DEB76297FF
:102610000FB6F894DEBF0FBECDBF8C016B017A01FF
:10262000822FA801475F5F4FB8016A5F7F4F0E940A
:1026300017043B01882ED8011C962C91C701F7FE88
:1026400004C0882799278E199F09DA82C9829C8342
:102650008B839E838D83688A798A8A8A213049F5A3
:10266000CE0101960E94A30483E08D871F861E86FB
:10267000F7FE02C08DEF8D87D801ED91FC910088A7
:10268000F189E02DBE016F5F7F4FC8010995629609
:102690000FB6F894DEBF0FBECDBFDF91CF911F9173
:1026A0000F91FF90EF90DF90CF908F907F906F9081
:1026B00008951C861B861A86198618861F82D4CF19
:1026C000CF92DF92EF92FF920F931F93CF93DF93FE
:1026D000CDB7DEB762970FB6F894DEBF0FBECDBFA1
:1026E0008C016B017A01822FA801475F5F4FB8010F
:1026F0006A5F7F4F0E9417049B01482FD8011C96E8
:102700008C91DA82C982FC82EB82FE82ED82288B78
:10271000398B4A8B813009F5CE0101960E94A304C2
:102720001D861F861E86D801ED91FC910088F189D7
:10273000E02DBE016F5F7F4FC801099562960FB60D
:10274000F894DEBF0FBECDBFDF91CF911F910F91E7
:10275000FF90EF90DF90CF9008951C861B861A861D
:10276000198618861F82DCCF0F931F934091D603E2
:102770005091D7036091D8037091D9038091500292
:1027800090915102A0915202B09153028A019B0193
:10279000081B190B2A0B3B0BD901C8014E97A10549
:1027A000B105A0F18091C5039091C60320914F021D
:1027B000213079F50F969093C6038093C5038091DD
:1027C000C5039091C6038F3F910544F08FEF90E0D1
:1027D0009093C6038093C50310924F028091C50366
:1027E0009091C603853691054CF484E690E0909371
:1027F000C6038093C50381E080934F02409350024B
:102800005093510260935202709353021F910F91A3
:1028100008950597D0CF0F931F934091D603509101
:10282000D7036091D8037091D90380914B029091A6
:102830004C02A0914D02B0914E028A019B01081BEF
:10284000190B2A0B3B0BD901C8014E97A105B10505
:10285000A0F18091CC039091CD0320914A022130C8
:1028600079F50F969093CD038093CC038091CC03A0
:102870009091CD038F3F910544F08FEF90E09093BE
:10288000CD038093CC0310924A028091CC039091A7
:10289000CD03853691054CF484E690E09093CD030A
:1028A0008093CC0381E080934A0240934B02509383
:1028B0004C0260934D0270934E021F910F91089548
:1028C0000597D0CF90E080E00895FC0164870895DB
:1028D000FC01848590E00895FC0186859785089524
:1028E000FC0101900020E9F73197AF01481B590B1B
:1028F000BC018FEF93E00C940A03CF93DF930E9407
:102900007014EC018AEA91E00E9470148C0F9D1FF4
:10291000DF91CF910895CF93DF93C091F903D091C8
:10292000FA03209799F08A819B81009759F02E85B0
:102930003F85A901440F551F420F531F70E060E00F
:102940000E943E1C0C80DD81C02DEBCFDF91CF912A
:1029500008951F93CF93DF93CDB7DEB7A1970FB63E
:10296000F894DEBF0FBECDBF8091D6039091D70300
:10297000A091D803B091D9034091460250914702EB
:102980006091480270914902841B950BA60BB70B0E
:102990008B3F9105A105B10538F181E09091D303FA
:1029A000911180E08093D30319A2805D88A3CE01AA
:1029B00080960E9470148AEA91E00E9470148091BF
:1029C000D4038F5F8093D4038091D6039091D70373
:1029D000A091D803B091D903809346029093470207
:1029E000A0934802B09349028091D303813009F04B
:1029F0004BC01FEF19831A821B82BE016F5F7F4F8E
:102A00008EE193E00E948C0019831A821B82BE0122
:102A10006F5F7F4F89E393E00E948C0019831A82D5
:102A20001B82BE016F5F7F4F84E593E00E948C00A4
:102A300019831A821B82BE016F5F7F4F8FE693E07E
:102A40000E948C0019831A821B82BE016F5F7F4F28
:102A50008AE893E00E948C0019831A821B82BE01CF
:102A60006F5F7F4F85EA93E00E948C0010939C0477
:102A70000E94B901A1960FB6F894DEBF0FBECDBF7C
:102A8000DF91CF911F9108958091D403873080F713
:102A900019821A821B82BE016F5F7F4F8EE193E025
:102AA0000E948C0019821A821B82BE016F5F7F4FC9
:102AB00089E393E00E948C0019821A821B82BE0176
:102AC0006F5F7F4F84E593E00E948C0019821A8229
:102AD0001B82BE016F5F7F4F8FE693E00E948C00E8
:102AE00019821A821B82BE016F5F7F4F8AE893E0D2
:102AF0000E948C0019821A821B82BE016F5F7F4F79
:102B000085EA93E00E948C00B3CF0E94391C1F928B
:102B10000F920FB60F9211242F933F938F939F9391
:102B2000AF93BF938091DF039091E003A091E10305
:102B3000B091E2033091DA0323E0230F2D3758F5EB
:102B40000196A11DB11D2093DA038093DF039093BA
:102B5000E003A093E103B093E2038091DB03909143
:102B6000DC03A091DD03B091DE030196A11DB11D30
:102B70008093DB039093DC03A093DD03B093DE032B
:102B8000BF91AF919F918F913F912F910F900FBE69
:102B90000F901F90189526E8230F0296A11DB11DD6
:102BA000D2CF1F920F920FB60F9211242F933F9303
:102BB0004F935F936F937F938F939F93AF93BF9345
:102BC000EF93FF938FEF93E00E948803FF91EF91C3
:102BD000BF91AF919F918F917F916F915F914F9135
:102BE0003F912F910F900FBE0F901F9018951F923D
:102BF0000F920FB60F9211242F938F939F93EF9301
:102C0000FF93E0910F04F09110048081E09115048E
:102C1000F091160482FD1BC09081809118048F5F93
:102C20008F7320911904821741F0E0911804F0E0AD
:102C3000E150FC4F958F80931804FF91EF919F9185
:102C40008F912F910F900FBE0F901F90189580813C
:102C5000F4CFEFEFF3E01382128288EE93E0A0E06E
:102C6000B0E084839583A683B7838CE991E0918358
:102C7000808385EC90E09587848784EC90E097874B
:102C8000868780EC90E0918B808B81EC90E0938B39
:102C9000828B82EC90E0958B848B86EC90E0978B16
:102CA000868B118E128E138E148EECE9F4E08FEF6A
:102CB000808312821182148613868FEF9FEFDC01CE
:102CC00087839087A187B287138214821582168228
:102CD0000895789484B5826084BD84B5816084BD94
:102CE00085B5826085BD85B5816085BD80916E00AA
:102CF000816080936E0010928100809181008260DB
:102D00008093810080918100816080938100809117
:102D100080008160809380008091B1008460809306
:102D2000B1008091B00081608093B00080917A0002
:102D3000846080937A0080917A00826080937A0028
:102D400080917A00816080937A0080917A00806817
:102D500080937A001092C10060E088E00E946301D5
:102D600060E089E00E94630160E08AE00E94630104
:102D7000E0910F04F091100482E08083E0910B0455
:102D8000F0910C041082E0910D04F0910E048FEC90
:102D9000808310921704E0911304F091140486E0EC
:102DA0008083E0911104F09112048081806180831E
:102DB000E0911104F0911204808188608083E09199
:102DC0001104F0911204808180688083E0911104E5
:102DD000F091120480818F7D808380917002811137
:102DE00011C088E592E00E94680410926F02109270
:102DF0006E0288E191E0909359028093580281E03D
:102E0000809370026EE173E088E592E00E94A20078
:102E100080919002811111C088E792E00E946804BD
:102E200010928F0210928E028EE291E090937902BE
:102E30008093780281E08093900269E373E088E7F1
:102E400092E00E94A2008091B002811111C088E935
:102E500092E00E9468041092AF021092AE0284E4E5
:102E600091E0909399028093980281E08093B00260
:102E700064E573E088E992E00E94A2008091D002AC
:102E8000811111C088EB92E00E9468041092CF0279
:102E90001092CE028AE591E09093B9028093B80235
:102EA00081E08093D0026FE673E088EB92E00E94AD
:102EB000A2008091F002811111C088ED92E00E9481
:102EC00068041092EF021092EE0280E791E0909376
:102ED000D9028093D80281E08093F0026AE873E01F
:102EE00088ED92E00E94A20080911003811111C030
:102EF00088EF92E00E94680410920F0310920E0374
:102F000086E891E09093F9028093F80281E0809343
:102F1000100365EA73E088EF92E00E94A2000E942D
:102F20008B1461E082E00E94630161E083E00E9413
:102F3000630161E084E00E94630168EC70E080E07E
:102F400090E00E94D8028DEA91E00E947D140CE688
:102F500013E03EE1E32E33E0F32ED12CC12CC2E38B
:102F6000F701C083C183C283C38FC48FC58FC114CF
:102F7000D10491F0C3ABC4ABC5ABF801C083C1832E
:102F8000C283F4E0CF16D1043CF0F801C58BC68BA8
:102F9000C78BC0ABC1ABC2AB0E94B9018CEB91E057
:102FA0000E947D14AFE6B3E0EEE1F3E010821182FF
:102FB0001282138E148E158E16AA17AA10AE1C92AA
:102FC00011961C92119712961C9212975B961C9266
:102FD0005B975C961C925C975D961C925D97D6966B
:102FE0001C92D697D7961C92D797D8961C92D897B2
:102FF0003396139623E0E933F207C1F666E970E0F1
:1030000080E090E00E94D8028FEFC81AD80AE3E06F
:10301000EE0EF11C0D5F1F4FF9E0CF16D10409F041
:103020009FCF0E94B90164E670E080E090E00E94CA
:10303000D8028AEC91E00E947D1406E313E027E8B1
:10304000E22E23E0F22EC2E3F801C083C183C283E3
:10305000C38FC48FC58FC6ABC7ABC0AFF701C083EA
:10306000C183C283C38FC48FC58FC6ABC7ABC0AF8C
:103070000E94B90166E970E080E090E00E94D80209
:1030800003501109F3E0EF1AF10823E00B311207A6
:10309000D9F682ED91E00E947D149FE6E92E93E03F
:1030A000F92E0EE113E0CFEFF801C083C183C28394
:1030B000C38FC48FC58FC6ABC7ABC0AFF701C0838A
:1030C000C183C283C38FC48FC58FC6ABC7ABC0AF2C
:1030D0000E94B9010D5F1F4FF3E0EF0EF11C23E0DA
:1030E0000933120709F760E971E080E090E00E947F
:1030F000D8028BED91E00E947D14CFEFD0E0D09309
:103100001D03C0931C03D0931B03C0931A03D093D9
:103110001903C0931803AFE6B3E0EEE1F3E0C08318
:10312000C183C283C38FC48FC58FC6ABC7ABC0AFCB
:10313000CC931196CC9311971296CC9312975B96E1
:10314000CC935B975C96CC935C975D96CC935D97A4
:10315000D696CC93D697D796CC93D797D896CC9330
:10316000D897339613960E171F07C9F60E94B90118
:1031700065E070E080E090E00E94D802219708F0BE
:10318000BECF64E670E080E090E00E94D802C2E327
:10319000D0E040911C0350911D034F5F5F4F50934F
:1031A0001D0340931C0320911A0330911B032F5FD2
:1031B0003F4F30931B0320931A0380911803909183
:1031C000190301969093190380931803AFE6B3E0B7
:1031D000EEE1F3E0408321838283438F248F858F48
:1031E00046AB27AB80AF4C9311962C931197129658
:1031F0008C9312975B964C935B975C962C935C97A1
:103200005D968C935D97D6964C93D697D7962C93D4
:10321000D797D8968C93D897339613960E171F0787
:10322000C9F60E94B9016AE070E080E090E00E9477
:10323000D802219709F0ADCF1092360310923703D0
:1032400010923803109251031092520310925303BC
:103250001092690310926A0310926B031092840318
:1032600010928503109286031092990310929A038C
:1032700010929B031092B4031092B5031092B60300
:1032800064E670E080E090E00E94D8020E94B901FC
:1032900010923303109234031092350310924E03B0
:1032A00010924F031092500310926603109267031E
:1032B000109268031092810310928203109283038C
:1032C0001092960310929703109298031092B103F4
:1032D0001092B2031092B3030E94B90164E670E049
:1032E00080E090E00E94D8021092300310923103E7
:1032F0001092320310924B0310924C0310924D0324
:1033000010926303109264031092650310927E037F
:1033100010927F03109280031092930310929403F3
:10332000109295031092AE031092AF031092B00367
:103330000E94B90164E670E080E090E00E94D8024B
:1033400010922D0310922E0310922F031092480317
:103350001092490310924A03109260031092610385
:103360001092620310927B0310927C0310927D03F3
:103370001092900310929103109292031092AB035B
:103380001092AC031092AD030E94B90164E670E0A4
:1033900080E090E00E94D80210922A0310922B0342
:1033A00010922C031092450310924603109247038B
:1033B00010925D0310925E0310925F0310927803E7
:1033C0001092790310927A0310928D0310928E035B
:1033D00010928F031092A8031092A9031092AA03CF
:1033E0000E94B90164E670E080E090E00E94D8029B
:1033F00000E010E0CFEF82E3F82E2FB7F894809131
:10340000DF039091E003A091E103B091E2032FBFAD
:103410008093D6039093D703A093D803B093D90396
:1034200088E00E940C01D82E89E00E940C01E82E51
:103430008AE00E940C01D82FF1E0DF1250C0D09238
:10344000D50388EE91E00E947D148091D60390917F
:10345000D703A091D803B091D903AA24A394EA106A
:1034600047C0E092D2038093CE039093CF03A09302
:10347000D003B093D10386EF91E00E947D14D13048
:1034800009F062C0D093CB038091D6039091D7030B
:10349000A091D803B091D9038093C7039093C80338
:1034A000A093C903B093CA0381E192E00E947D1406
:1034B0008BE292E00E947D148091D6039091D70315
:1034C000A091D803B091D9038093C1039093C20314
:1034D000A093C303B093C403D093C00377C01092EA
:1034E000D5030E948B141092D4031092D303ADCF56
:1034F0004091CE035091CF036091D0037091D103DE
:103500005C016D01A41AB50AC60AD70AB601A50165
:10351000443F51406105710530F01092D203109282
:10352000CD031092CC03D13079F4D093CB038093A8
:10353000C7039093C803A093C903B093CA0381E162
:1035400092E00E947D141FC08091D6039091D70312
:10355000A091D803B091D9034091C7035091C803FB
:103560006091C9037091CA03841B950BA60BB70B1E
:10357000843F9140A105B10530F01092CB03109229
:10358000C6031092C5038091D6039091D703A091F2
:10359000D803B091D9034091C1035091C203609107
:1035A000C3037091C403841B950BA60BB70B843F18
:1035B0009140A105B10550F01092C0031092C603CE
:1035C0001092C5031092CD031092CC038091D503C5
:1035D000813021F59091D2038091C003911141C0B7
:1035E0009091CB03911136C0811146C00E94A9145D
:1035F0006091CC0384E00E9435016091C50383E0B3
:103600000E9435010115110509F4F7CE0E947403DB
:10361000882309F4F2CE0E940000EFCE8111E8CF9A
:103620009091D2038091C003913049F49091CB03E3
:1036300091118BC0811189C00E940B14D9CF9111B7
:1036400084C09091CB039130F9F481111DC00E9488
:10365000B413CECF913081F481110EC00E94A91411
:10366000F6CF913049F49091CB03911105C08111AF
:1036700003C00E94A914E0CF813009F0B9CF0E94A5
:10368000A9140E94B413D8CF8130D9F39111B0CFCF
:103690008111AECF0E948B14C09336031092370372
:1036A00010923803C0933303109234031092350301
:1036B000C09330031092310310923203C0932D0354
:1036C00010922E0310922F03C093510310925203B5
:1036D00010925303C0934E0310924F031092500365
:1036E000C0934B0310924C0310924D03C0934803B8
:1036F0001092490310924A03C093690310926A031F
:1037000010926B03C09366031092670310926803D4
:10371000C09363031092640310926503C093840303
:103720001092850310928603C09381031092820346
:1037300010928303C0937E0310927F031092800344
:10374000F0929C040E94B90153CF813009F050CF10
:1037500098CF97FB072E16F4009407D077FD09D079
:103760000E941F1C07FC05D03EF4909581959F4F49
:103770000895709561957F4F0895A1E21A2EAA1BB6
:10378000BB1BFD010DC0AA1FBB1FEE1FFF1FA21711
:10379000B307E407F50720F0A21BB30BE40BF50B0E
:1037A000661F771F881F991F1A9469F76095709597
:1037B000809590959B01AC01BD01CF010895052E28
:1037C00097FB1EF400940E94F61B57FD07D00E9441
:1037D000BD1B07FC03D04EF40C94F61B509540958E
:1037E000309521953F4F4F4F5F4F089590958095AD
:1037F000709561957F4F8F4F9F4F0895A29FB001A5
:10380000B39FC001A39F700D811D1124911DB29F14
:10381000700D811D1124911D08950E94FE1BB7FF9C
:103820000895821B930B08950E94FE1BA59F900D87
:10383000B49F900DA49F800D911D11240895AA1B83
:10384000BB1B51E107C0AA1FBB1FA617B70710F08B
:10385000A61BB70B881F991F5A95A9F780959095BD
:10386000BC01CD010895EE0FFF1F0590F491E02DEE
:10387000099481E090E0F8940C94451CDC0101C0AF
:0E3880006D9341505040E0F70895F894FFCF4B
:10388E00000000008515851585156C14A0046814BC
:10389E0065146214000000006013FA124F076C14D6
:1038AE00A004681465144C07F904000000006013AE
:1038BE00FA12A4096C14A004681465144C0751077D
:1038CE00000000006013FA12F90B6C14A0046814C7
:1038DE0065144C07A609000000006013FA124E0E84
:1038EE006C14A004681465144C07FB0B0000000058
:1038FE006013FA12A3106C14A004681465144C071C
:10390E00500E000000006013FA12F8126C14A0049E
:10391E00681465144C07A51000000000AA030A03E2
:10392E003703F703680346035A030D0A0053746105
:10393E007274204B6974204D6F6465005475726EFD
:10394E00204C454473206F666600536574206C6F7F
:10395E0077005365742068696768005374617274E8
:10396E0020666164696E67006272616B65206170CA
:10397E00706C696564007269676874207475726E24
:10398E00207369676E616C20646574656374656429
:10399E00006C656674207475726E207369676E6153
:1039AE006C2064657465637465640068617A617225
:1039BE0064207369676E616C2064657465637465F9
:0239CE00640093
:00000001FF
